{"abi":[{"type":"function","name":"MAX_COUNT_CHOICES","inputs":[],"outputs":[{"name":"","type":"uint256","internalType":"uint256"}],"stateMutability":"view"},{"type":"function","name":"addVoteSession","inputs":[{"name":"_title","type":"string","internalType":"string"},{"name":"_description","type":"string","internalType":"string"},{"name":"_startTime","type":"uint256","internalType":"uint256"},{"name":"_endTime","type":"uint256","internalType":"uint256"},{"name":"_minNumberVotes","type":"uint256","internalType":"uint256"},{"name":"_isPrivate","type":"bool","internalType":"bool"},{"name":"_voters","type":"tuple[]","internalType":"struct Voting.Voter[]","components":[{"name":"addr","type":"address","internalType":"address"},{"name":"hasVoted","type":"bool","internalType":"bool"},{"name":"choice","type":"string","internalType":"string"},{"name":"canVote","type":"uint8","internalType":"enum Voting.VoteAccess"}]},{"name":"_choices","type":"string[]","internalType":"string[]"}],"outputs":[],"stateMutability":"nonpayable"},{"type":"function","name":"countVoteSessions","inputs":[],"outputs":[{"name":"","type":"uint256","internalType":"uint256"}],"stateMutability":"view"},{"type":"function","name":"endVoteSession","inputs":[{"name":"_voteSessionId","type":"uint256","internalType":"uint256"}],"outputs":[],"stateMutability":"nonpayable"},{"type":"function","name":"getVotingCreatedByAddress","inputs":[{"name":"_voter","type":"address","internalType":"address"}],"outputs":[{"name":"","type":"uint256[]","internalType":"uint256[]"}],"stateMutability":"view"},{"type":"function","name":"getVotingParticipatedByAddress","inputs":[{"name":"_voter","type":"address","internalType":"address"}],"outputs":[{"name":"","type":"uint256[]","internalType":"uint256[]"}],"stateMutability":"view"},{"type":"function","name":"vote","inputs":[{"name":"_voteSessionId","type":"uint256","internalType":"uint256"},{"name":"_indChoice","type":"uint256","internalType":"uint256"}],"outputs":[],"stateMutability":"nonpayable"},{"type":"function","name":"voteSessions","inputs":[{"name":"","type":"uint256","internalType":"uint256"}],"outputs":[{"name":"id","type":"uint256","internalType":"uint256"},{"name":"creatorAddr","type":"address","internalType":"address"},{"name":"title","type":"string","internalType":"string"},{"name":"description","type":"string","internalType":"string"},{"name":"startTime","type":"uint256","internalType":"uint256"},{"name":"endTime","type":"uint256","internalType":"uint256"},{"name":"minNumberVotes","type":"uint256","internalType":"uint256"},{"name":"tempNumberVotes","type":"uint256","internalType":"uint256"},{"name":"isPrivate","type":"bool","internalType":"bool"},{"name":"status","type":"uint8","internalType":"enum Voting.StatusVoteSession"}],"stateMutability":"view"},{"type":"function","name":"votingCreatedByAddress","inputs":[{"name":"","type":"address","internalType":"address"},{"name":"","type":"uint256","internalType":"uint256"}],"outputs":[{"name":"","type":"uint256","internalType":"uint256"}],"stateMutability":"view"},{"type":"function","name":"votingParticipatedByAddress","inputs":[{"name":"","type":"address","internalType":"address"},{"name":"","type":"uint256","internalType":"uint256"}],"outputs":[{"name":"","type":"uint256","internalType":"uint256"}],"stateMutability":"view"},{"type":"event","name":"VoteSessionCreated","inputs":[{"name":"voteSessionId","type":"uint256","indexed":false,"internalType":"uint256"},{"name":"name","type":"string","indexed":false,"internalType":"string"},{"name":"startTime","type":"uint256","indexed":false,"internalType":"uint256"},{"name":"endTime","type":"uint256","indexed":false,"internalType":"uint256"}],"anonymous":false},{"type":"event","name":"VoteSessionEnded","inputs":[{"name":"voteSessionId","type":"uint256","indexed":false,"internalType":"uint256"},{"name":"countVoters","type":"uint256","indexed":false,"internalType":"uint256"},{"name":"status","type":"uint8","indexed":false,"internalType":"enum Voting.StatusVoteSession"},{"name":"winners","type":"string[]","indexed":false,"internalType":"string[]"}],"anonymous":false},{"type":"event","name":"Voted","inputs":[{"name":"voteSessionId","type":"uint256","indexed":false,"internalType":"uint256"},{"name":"voter","type":"address","indexed":false,"internalType":"address"},{"name":"choice","type":"string","indexed":false,"internalType":"string"}],"anonymous":false},{"type":"error","name":"ChoiceLengthCantBeZero","inputs":[]},{"type":"error","name":"ChoiceNotFound","inputs":[{"name":"idVoteSession","type":"uint256","internalType":"uint256"},{"name":"countChoisesVoteSession","type":"uint256","internalType":"uint256"},{"name":"indChoice","type":"uint256","internalType":"uint256"}]},{"type":"error","name":"CountChoosesCantBeZero","inputs":[]},{"type":"error","name":"CountChoosesMoreFour","inputs":[]},{"type":"error","name":"EndTimeLessTimestamp","inputs":[]},{"type":"error","name":"NameVoteSessionCantBeEmpty","inputs":[]},{"type":"error","name":"StartTimeLessTimestamp","inputs":[]},{"type":"error","name":"StartTimeMoreOrEqualEndTime","inputs":[]},{"type":"error","name":"UserNotVoterInThisVoteSession","inputs":[{"name":"idVoteSession","type":"uint256","internalType":"uint256"}]},{"type":"error","name":"VoteSessionAlreadyEnded","inputs":[]},{"type":"error","name":"VoteSessionEndTimeNotReached","inputs":[{"name":"idVoteSession","type":"uint256","internalType":"uint256"},{"name":"endTime","type":"uint256","internalType":"uint256"},{"name":"timestamp","type":"uint256","internalType":"uint256"}]},{"type":"error","name":"VoteSessionHasEnded","inputs":[{"name":"idVoteSession","type":"uint256","internalType":"uint256"},{"name":"startTime","type":"uint256","internalType":"uint256"},{"name":"timestamp","type":"uint256","internalType":"uint256"}]},{"type":"error","name":"VoteSessionNotFound","inputs":[{"name":"idVoteSession","type":"uint256","internalType":"uint256"},{"name":"countVoteSessions","type":"uint256","internalType":"uint256"}]},{"type":"error","name":"VoteSessionNotStarted","inputs":[{"name":"idVoteSession","type":"uint256","internalType":"uint256"},{"name":"startTime","type":"uint256","internalType":"uint256"},{"name":"timestamp","type":"uint256","internalType":"uint256"}]},{"type":"error","name":"VoterAddressCantBeZero","inputs":[]},{"type":"error","name":"VoterAlreadyVoted","inputs":[{"name":"idVoteSession","type":"uint256","internalType":"uint256"}]}],"bytecode":{"object":"0x6080604052348015600e575f5ffd5b5061281f8061001c5f395ff3fe608060405234801561000f575f5ffd5b506004361061009c575f3560e01c80637187bece116100645780637187bece146101735780639cca07781461018f578063b384abef146101bf578063bbf2afa1146101db578063e21fc77f1461020b5761009c565b806306caebb6146100a05780630b62228c146100d95780634993207d146101095780634ca5f3dc14610139578063603267db14610157575b5f5ffd5b6100ba60048036038101906100b59190611682565b610229565b6040516100d09a999897969594939291906117f8565b60405180910390f35b6100f360048036038101906100ee91906118ca565b6103bc565b60405161010091906119ac565b60405180910390f35b610123600480360381019061011e91906119cc565b6104b4565b6040516101309190611a0a565b60405180910390f35b6101416104df565b60405161014e9190611a0a565b60405180910390f35b610171600480360381019061016c9190611dc5565b6104e4565b005b61018d60048036038101906101889190611682565b610b9a565b005b6101a960048036038101906101a491906118ca565b610ee2565b6040516101b691906119ac565b60405180910390f35b6101d960048036038101906101d49190611ef2565b610fda565b005b6101f560048036038101906101f091906119cc565b61160e565b6040516102029190611a0a565b60405180910390f35b610213611639565b6040516102209190611a0a565b60405180910390f35b6001602052805f5260405f205f91509050805f015490806001015f9054906101000a900473ffffffffffffffffffffffffffffffffffffffff169080600201805461027390611f5d565b80601f016020809104026020016040519081016040528092919081815260200182805461029f90611f5d565b80156102ea5780601f106102c1576101008083540402835291602001916102ea565b820191905f5260205f20905b8154815290600101906020018083116102cd57829003601f168201915b5050505050908060030180546102ff90611f5d565b80601f016020809104026020016040519081016040528092919081815260200182805461032b90611f5d565b80156103765780601f1061034d57610100808354040283529160200191610376565b820191905f5260205f20905b81548152906001019060200180831161035957829003601f168201915b505050505090806004015490806005015490806006015490806007015490806008015f9054906101000a900460ff169080600a015f9054906101000a900460ff1690508a565b60605f73ffffffffffffffffffffffffffffffffffffffff168273ffffffffffffffffffffffffffffffffffffffff1603610423576040517f5792661100000000000000000000000000000000000000000000000000000000815260040160405180910390fd5b60035f8373ffffffffffffffffffffffffffffffffffffffff1673ffffffffffffffffffffffffffffffffffffffff1681526020019081526020015f208054806020026020016040519081016040528092919081815260200182805480156104a857602002820191905f5260205f20905b815481526020019060010190808311610494575b50505050509050919050565b6002602052815f5260405f2081815481106104cd575f80fd5b905f5260205f20015f91509150505481565b600481565b5f8b8b905003610520576040517fc6a8dc1100000000000000000000000000000000000000000000000000000000815260040160405180910390fd5b858710610559576040517fe5c2f1c800000000000000000000000000000000000000000000000000000000815260040160405180910390fd5b42871015610593576040517fa349b7cd00000000000000000000000000000000000000000000000000000000815260040160405180910390fd5b428610156105cd576040517f64a33e0e00000000000000000000000000000000000000000000000000000000815260040160405180910390fd5b5f8282905003610609576040517f157c158700000000000000000000000000000000000000000000000000000000815260040160405180910390fd5b6004828290501115610647576040517fc505227d00000000000000000000000000000000000000000000000000000000815260040160405180910390fd5b8315610737575f5f90505b8351811015610735575f73ffffffffffffffffffffffffffffffffffffffff1684828151811061068557610684611f8d565b5b60200260200101515f015173ffffffffffffffffffffffffffffffffffffffff16036106dd576040517f5792661100000000000000000000000000000000000000000000000000000000815260040160405180910390fd5b60018482815181106106f2576106f1611f8d565b5b60200260200101516060019060028111156107105761070f611785565b5b9081600281111561072457610723611785565b5b815250508080600101915050610652565b505b5f5f90505b828290508110156107b3575f83838381811061075b5761075a611f8d565b5b905060200281019061076d9190611fc6565b9050036107a6576040517ffe47476d00000000000000000000000000000000000000000000000000000000815260040160405180910390fd5b808060010191505061073c565b505f5f8154809291906107c590612055565b91905055505f60015f5f5481526020019081526020015f2090505f54815f018190555033816001015f6101000a81548173ffffffffffffffffffffffffffffffffffffffff021916908373ffffffffffffffffffffffffffffffffffffffff1602179055508b8b82600201918261083d929190612246565b508989826003019182610851929190612246565b508781600401819055508681600501819055508581600601819055505f816007018190555084816008015f6101000a81548160ff0219169083151502179055505f5f90505b84518110156109ce578481815181106108b2576108b1611f8d565b5b6020026020010151826009015f8784815181106108d2576108d1611f8d565b5b60200260200101515f015173ffffffffffffffffffffffffffffffffffffffff1673ffffffffffffffffffffffffffffffffffffffff1681526020019081526020015f205f820151815f015f6101000a81548173ffffffffffffffffffffffffffffffffffffffff021916908373ffffffffffffffffffffffffffffffffffffffff1602179055506020820151815f0160146101000a81548160ff021916908315150217905550604082015181600101908161098e9190612313565b506060820151816002015f6101000a81548160ff021916908360028111156109b9576109b8611785565b5b02179055509050508080600101915050610896565b505f5f90505b83839050811015610ab15781600b016040518060400160405280868685818110610a0157610a00611f8d565b5b9050602002810190610a139190611fc6565b8080601f0160208091040260200160405190810160405280939291908181526020018383808284375f81840152601f19601f8201169050808301925050505050505081526020015f815250908060018154018082558091505060019003905f5260205f2090600202015f909190919091505f820151815f019081610a979190612313565b5060208201518160010155505080806001019150506109d4565b505f81600a015f6101000a81548160ff02191690836003811115610ad857610ad7611785565b5b021790555060025f3373ffffffffffffffffffffffffffffffffffffffff1673ffffffffffffffffffffffffffffffffffffffff1681526020019081526020015f20815f0154908060018154018082558091505060019003905f5260205f20015f90919091909150557fd1b5bb1af71e120dde4bb4e437cb16050f97b1d5c5696246337abed23445d02a815f01548260020183600401548460050154604051610b849493929190612463565b60405180910390a1505050505050505050505050565b5f54811180610ba857505f81145b15610bed57805f546040517f093635cf000000000000000000000000000000000000000000000000000000008152600401610be49291906124ad565b60405180910390fd5b5f60015f8381526020019081526020015f2090505f81600b018054905090508160050154421015610c5d57828260050154426040517f51345064000000000000000000000000000000000000000000000000000000008152600401610c54939291906124d4565b60405180910390fd5b60026003811115610c7157610c70611785565b5b82600a015f9054906101000a900460ff166003811115610c9457610c93611785565b5b1480610cd35750600380811115610cae57610cad611785565b5b82600a015f9054906101000a900460ff166003811115610cd157610cd0611785565b5b145b15610d0a576040517fec1d1f5400000000000000000000000000000000000000000000000000000000815260040160405180910390fd5b816006015482600701541015610d4b57600382600a015f6101000a81548160ff02191690836003811115610d4157610d40611785565b5b0217905550610e89565b600282600a015f6101000a81548160ff02191690836003811115610d7257610d71611785565b5b02179055505f5f5f90505b82811015610de7578184600b018281548110610d9c57610d9b611f8d565b5b905f5260205f2090600202016001015410610dda5783600b018181548110610dc757610dc6611f8d565b5b905f5260205f2090600202016001015491505b8080600101915050610d7d565b505f5f90505b82811015610e86578184600b018281548110610e0c57610e0b611f8d565b5b905f5260205f2090600202016001015403610e795783600c0184600b018281548110610e3b57610e3a611f8d565b5b905f5260205f2090600202015f01908060018154018082558091505060019003905f5260205f20015f909190919091509081610e779190612530565b505b8080600101915050610ded565b50505b7f25664b57f16a34df04bb8814a728d8fe103666cfe31a9db64819a2efc9aebbd683836007015484600a015f9054906101000a900460ff1685600c01604051610ed59493929190612763565b60405180910390a1505050565b60605f73ffffffffffffffffffffffffffffffffffffffff168273ffffffffffffffffffffffffffffffffffffffff1603610f49576040517f5792661100000000000000000000000000000000000000000000000000000000815260040160405180910390fd5b60025f8373ffffffffffffffffffffffffffffffffffffffff1673ffffffffffffffffffffffffffffffffffffffff1681526020019081526020015f20805480602002602001604051908101604052809291908181526020018280548015610fce57602002820191905f5260205f20905b815481526020019060010190808311610fba575b50505050509050919050565b5f54821180610fe857505f82145b1561102d57815f546040517f093635cf0000000000000000000000000000000000000000000000000000000081526004016110249291906124ad565b60405180910390fd5b5f60015f8481526020019081526020015f2090505f81600b0180549050905080831115611095578381846040517f19bcde8400000000000000000000000000000000000000000000000000000000815260040161108c939291906124d4565b60405180910390fd5b81600401544210156110e657838260040154426040517fc70ea99e0000000000000000000000000000000000000000000000000000000081526004016110dd939291906124d4565b60405180910390fd5b816005015442118061112c57506002600381111561110757611106611785565b5b82600a015f9054906101000a900460ff16600381111561112a57611129611785565b5b145b8061116a575060038081111561114557611144611785565b5b82600a015f9054906101000a900460ff16600381111561116857611167611785565b5b145b156111b457838260050154426040517f43ccc19c0000000000000000000000000000000000000000000000000000000081526004016111ab939291906124d4565b60405180910390fd5b816009015f3373ffffffffffffffffffffffffffffffffffffffff1673ffffffffffffffffffffffffffffffffffffffff1681526020019081526020015f205f0160149054906101000a900460ff161561124557836040517f826acdc900000000000000000000000000000000000000000000000000000000815260040161123c9190611a0a565b60405180910390fd5b816008015f9054906101000a900460ff161561138f575f600281111561126e5761126d611785565b5b826009015f3373ffffffffffffffffffffffffffffffffffffffff1673ffffffffffffffffffffffffffffffffffffffff1681526020019081526020015f206002015f9054906101000a900460ff1660028111156112cf576112ce611785565b5b148061134c57506002808111156112e9576112e8611785565b5b826009015f3373ffffffffffffffffffffffffffffffffffffffff1673ffffffffffffffffffffffffffffffffffffffff1681526020019081526020015f206002015f9054906101000a900460ff16600281111561134a57611349611785565b5b145b1561138e57836040517fced2ec970000000000000000000000000000000000000000000000000000000081526004016113859190611a0a565b60405180910390fd5b5b816004015442101580156113d657505f60038111156113b1576113b0611785565b5b82600a015f9054906101000a900460ff1660038111156113d4576113d3611785565b5b145b1561140857600182600a015f6101000a81548160ff0219169083600381111561140257611401611785565b5b02179055505b6001826009015f3373ffffffffffffffffffffffffffffffffffffffff1673ffffffffffffffffffffffffffffffffffffffff1681526020019081526020015f205f0160146101000a81548160ff02191690831515021790555081600b01838154811061147857611477611f8d565b5b905f5260205f2090600202016001015f81548092919061149790612055565b9190505550816007015f8154809291906114b090612055565b919050555081600b0183815481106114cb576114ca611f8d565b5b905f5260205f2090600202015f01826009015f3373ffffffffffffffffffffffffffffffffffffffff1673ffffffffffffffffffffffffffffffffffffffff1681526020019081526020015f2060010190816115279190612530565b5060035f3373ffffffffffffffffffffffffffffffffffffffff1673ffffffffffffffffffffffffffffffffffffffff1681526020019081526020015f20825f0154908060018154018082558091505060019003905f5260205f20015f90919091909150557f909b43dcc56d91024768bbc5c8d56441234580b2fd6176844960cbc7218cc0b58433846009015f3373ffffffffffffffffffffffffffffffffffffffff1673ffffffffffffffffffffffffffffffffffffffff1681526020019081526020015f20600101604051611600939291906127ad565b60405180910390a150505050565b6003602052815f5260405f208181548110611627575f80fd5b905f5260205f20015f91509150505481565b5f5481565b5f604051905090565b5f5ffd5b5f5ffd5b5f819050919050565b6116618161164f565b811461166b575f5ffd5b50565b5f8135905061167c81611658565b92915050565b5f6020828403121561169757611696611647565b5b5f6116a48482850161166e565b91505092915050565b6116b68161164f565b82525050565b5f73ffffffffffffffffffffffffffffffffffffffff82169050919050565b5f6116e5826116bc565b9050919050565b6116f5816116db565b82525050565b5f81519050919050565b5f82825260208201905092915050565b8281835e5f83830152505050565b5f601f19601f8301169050919050565b5f61173d826116fb565b6117478185611705565b9350611757818560208601611715565b61176081611723565b840191505092915050565b5f8115159050919050565b61177f8161176b565b82525050565b7f4e487b71000000000000000000000000000000000000000000000000000000005f52602160045260245ffd5b600481106117c3576117c2611785565b5b50565b5f8190506117d3826117b2565b919050565b5f6117e2826117c6565b9050919050565b6117f2816117d8565b82525050565b5f6101408201905061180c5f83018d6116ad565b611819602083018c6116ec565b818103604083015261182b818b611733565b9050818103606083015261183f818a611733565b905061184e60808301896116ad565b61185b60a08301886116ad565b61186860c08301876116ad565b61187560e08301866116ad565b611883610100830185611776565b6118916101208301846117e9565b9b9a5050505050505050505050565b6118a9816116db565b81146118b3575f5ffd5b50565b5f813590506118c4816118a0565b92915050565b5f602082840312156118df576118de611647565b5b5f6118ec848285016118b6565b91505092915050565b5f81519050919050565b5f82825260208201905092915050565b5f819050602082019050919050565b6119278161164f565b82525050565b5f611938838361191e565b60208301905092915050565b5f602082019050919050565b5f61195a826118f5565b61196481856118ff565b935061196f8361190f565b805f5b8381101561199f578151611986888261192d565b975061199183611944565b925050600181019050611972565b5085935050505092915050565b5f6020820190508181035f8301526119c48184611950565b905092915050565b5f5f604083850312156119e2576119e1611647565b5b5f6119ef858286016118b6565b9250506020611a008582860161166e565b9150509250929050565b5f602082019050611a1d5f8301846116ad565b92915050565b5f5ffd5b5f5ffd5b5f5ffd5b5f5f83601f840112611a4457611a43611a23565b5b8235905067ffffffffffffffff811115611a6157611a60611a27565b5b602083019150836001820283011115611a7d57611a7c611a2b565b5b9250929050565b611a8d8161176b565b8114611a97575f5ffd5b50565b5f81359050611aa881611a84565b92915050565b7f4e487b71000000000000000000000000000000000000000000000000000000005f52604160045260245ffd5b611ae482611723565b810181811067ffffffffffffffff82111715611b0357611b02611aae565b5b80604052505050565b5f611b1561163e565b9050611b218282611adb565b919050565b5f67ffffffffffffffff821115611b4057611b3f611aae565b5b602082029050602081019050919050565b5f5ffd5b5f5ffd5b5f5ffd5b5f67ffffffffffffffff821115611b7757611b76611aae565b5b611b8082611723565b9050602081019050919050565b828183375f83830152505050565b5f611bad611ba884611b5d565b611b0c565b905082815260208101848484011115611bc957611bc8611b59565b5b611bd4848285611b8d565b509392505050565b5f82601f830112611bf057611bef611a23565b5b8135611c00848260208601611b9b565b91505092915050565b60038110611c15575f5ffd5b50565b5f81359050611c2681611c09565b92915050565b5f60808284031215611c4157611c40611b51565b5b611c4b6080611b0c565b90505f611c5a848285016118b6565b5f830152506020611c6d84828501611a9a565b602083015250604082013567ffffffffffffffff811115611c9157611c90611b55565b5b611c9d84828501611bdc565b6040830152506060611cb184828501611c18565b60608301525092915050565b5f611ccf611cca84611b26565b611b0c565b90508083825260208201905060208402830185811115611cf257611cf1611a2b565b5b835b81811015611d3957803567ffffffffffffffff811115611d1757611d16611a23565b5b808601611d248982611c2c565b85526020850194505050602081019050611cf4565b5050509392505050565b5f82601f830112611d5757611d56611a23565b5b8135611d67848260208601611cbd565b91505092915050565b5f5f83601f840112611d8557611d84611a23565b5b8235905067ffffffffffffffff811115611da257611da1611a27565b5b602083019150836020820283011115611dbe57611dbd611a2b565b5b9250929050565b5f5f5f5f5f5f5f5f5f5f5f6101008c8e031215611de557611de4611647565b5b5f8c013567ffffffffffffffff811115611e0257611e0161164b565b5b611e0e8e828f01611a2f565b9b509b505060208c013567ffffffffffffffff811115611e3157611e3061164b565b5b611e3d8e828f01611a2f565b99509950506040611e508e828f0161166e565b9750506060611e618e828f0161166e565b9650506080611e728e828f0161166e565b95505060a0611e838e828f01611a9a565b94505060c08c013567ffffffffffffffff811115611ea457611ea361164b565b5b611eb08e828f01611d43565b93505060e08c013567ffffffffffffffff811115611ed157611ed061164b565b5b611edd8e828f01611d70565b92509250509295989b509295989b9093969950565b5f5f60408385031215611f0857611f07611647565b5b5f611f158582860161166e565b9250506020611f268582860161166e565b9150509250929050565b7f4e487b71000000000000000000000000000000000000000000000000000000005f52602260045260245ffd5b5f6002820490506001821680611f7457607f821691505b602082108103611f8757611f86611f30565b5b50919050565b7f4e487b71000000000000000000000000000000000000000000000000000000005f52603260045260245ffd5b5f5ffd5b5f5ffd5b5f5ffd5b5f5f83356001602003843603038112611fe257611fe1611fba565b5b80840192508235915067ffffffffffffffff82111561200457612003611fbe565b5b6020830192506001820236038313156120205761201f611fc2565b5b509250929050565b7f4e487b71000000000000000000000000000000000000000000000000000000005f52601160045260245ffd5b5f61205f8261164f565b91507fffffffffffffffffffffffffffffffffffffffffffffffffffffffffffffffff820361209157612090612028565b5b600182019050919050565b5f82905092915050565b5f819050815f5260205f209050919050565b5f6020601f8301049050919050565b5f82821b905092915050565b5f600883026121027fffffffffffffffffffffffffffffffffffffffffffffffffffffffffffffffff826120c7565b61210c86836120c7565b95508019841693508086168417925050509392505050565b5f819050919050565b5f61214761214261213d8461164f565b612124565b61164f565b9050919050565b5f819050919050565b6121608361212d565b61217461216c8261214e565b8484546120d3565b825550505050565b5f5f905090565b61218b61217c565b612196818484612157565b505050565b5b818110156121b9576121ae5f82612183565b60018101905061219c565b5050565b601f8211156121fe576121cf816120a6565b6121d8846120b8565b810160208510156121e7578190505b6121fb6121f3856120b8565b83018261219b565b50505b505050565b5f82821c905092915050565b5f61221e5f1984600802612203565b1980831691505092915050565b5f612236838361220f565b9150826002028217905092915050565b612250838361209c565b67ffffffffffffffff81111561226957612268611aae565b5b6122738254611f5d565b61227e8282856121bd565b5f601f8311600181146122ab575f8415612299578287013590505b6122a3858261222b565b86555061230a565b601f1984166122b9866120a6565b5f5b828110156122e0578489013582556001820191506020850194506020810190506122bb565b868310156122fd57848901356122f9601f89168261220f565b8355505b6001600288020188555050505b50505050505050565b61231c826116fb565b67ffffffffffffffff81111561233557612334611aae565b5b61233f8254611f5d565b61234a8282856121bd565b5f60209050601f83116001811461237b575f8415612369578287015190505b612373858261222b565b8655506123da565b601f198416612389866120a6565b5f5b828110156123b05784890151825560018201915060208501945060208101905061238b565b868310156123cd57848901516123c9601f89168261220f565b8355505b6001600288020188555050505b505050505050565b5f81546123ee81611f5d565b6123f88186611705565b9450600182165f811461241257600181146124285761245a565b60ff19831686528115156020028601935061245a565b612431856120a6565b5f5b8381101561245257815481890152600182019150602081019050612433565b808801955050505b50505092915050565b5f6080820190506124765f8301876116ad565b818103602083015261248881866123e2565b905061249760408301856116ad565b6124a460608301846116ad565b95945050505050565b5f6040820190506124c05f8301856116ad565b6124cd60208301846116ad565b9392505050565b5f6060820190506124e75f8301866116ad565b6124f460208301856116ad565b61250160408301846116ad565b949350505050565b5f8154905061251781611f5d565b9050919050565b5f819050815f5260205f209050919050565b81810361253e575050612613565b61254782612509565b67ffffffffffffffff8111156125605761255f611aae565b5b61256a8254611f5d565b6125758282856121bd565b5f601f8311600181146125a2575f8415612590578287015490505b61259a858261222b565b86555061260c565b601f1984166125b08761251e565b96506125bb866120a6565b5f5b828110156125e2578489015482556001820191506001850194506020810190506125bd565b868310156125ff57848901546125fb601f89168261220f565b8355505b6001600288020188555050505b5050505050505b565b5f81549050919050565b5f82825260208201905092915050565b5f819050815f5260205f209050919050565b5f82825260208201905092915050565b5f815461265d81611f5d565b6126678186612641565b9450600182165f81146126815760018114612697576126c9565b60ff1983168652811515602002860193506126c9565b6126a0856120a6565b5f5b838110156126c1578154818901526001820191506020810190506126a2565b808801955050505b50505092915050565b5f6126dd8383612651565b905092915050565b5f600182019050919050565b5f6126fb82612615565b612705818561261f565b9350836020820285016127178561262f565b805f5b858110156127515784840389528161273285826126d2565b945061273d836126e5565b925060208a0199505060018101905061271a565b50829750879550505050505092915050565b5f6080820190506127765f8301876116ad565b61278360208301866116ad565b61279060408301856117e9565b81810360608301526127a281846126f1565b905095945050505050565b5f6060820190506127c05f8301866116ad565b6127cd60208301856116ec565b81810360408301526127df81846123e2565b905094935050505056fea2646970667358221220ad7d8cdf8f6af2fc82015df759bdffa79bcc03361744adee9fc809fc17167c1264736f6c634300081e0033","linkReferences":{}},"methodIdentifiers":{"MAX_COUNT_CHOICES()":"4ca5f3dc","addVoteSession(string,string,uint256,uint256,uint256,bool,(address,bool,string,uint8)[],string[])":"603267db","countVoteSessions()":"e21fc77f","endVoteSession(uint256)":"7187bece","getVotingCreatedByAddress(address)":"9cca0778","getVotingParticipatedByAddress(address)":"0b62228c","vote(uint256,uint256)":"b384abef","voteSessions(uint256)":"06caebb6","votingCreatedByAddress(address,uint256)":"4993207d","votingParticipatedByAddress(address,uint256)":"bbf2afa1"},"id":0}